:100000006BEF00F00F501102F3CF01F0F4CF00F0CE
:100010001202F350002610501102F3500020026E1D
:10002000DCEF00F0016A026A006A036A125002E122
:10003000115018E0100E136ED8900F36103600369F
:1000400003361250035C02E11150005C07E31150CB
:10005000005ED8A003061250035ED8800136023637
:10006000132EEAD7F6EF00F0EA6A0B0EE96EEF50B6
:100070000EE0050E016E006A002EFED7012EFBD7A2
:100080002E0E006E002EFED700D0EF2EF2D7FFEF1F
:1000900000F0926A0BC089FF0C300E6E0B300D6EB3
:1000A0000E320D320E320D320E320D320E320D3254
:1000B0000E320D32030E0E16936A0DC08AFF0C30FD
:1000C0000D6E0D323F0E0D16969096929694969662
:1000D0000DC08DFF1200F86AD09EC150C00B0F09F1
:1000E000C16E070EB46ED36AD350C050C00B0F0957
:1000F000C06EC09EC280000E926E969096929694AC
:100100009686F00E936EFF0E946E956E056A066AE3
:10011000086A076A096A320E0A6E0994946882CFE7
:1001200005F0956883CF06F0938881A805D00988EB
:10013000099A099C099E17D0938A81AA05D009982B
:10014000098A099C099E0FD0938C81AC05D009982F
:10015000099A098C099E07D0938E81AE04D0099824
:10016000099A099C098E09A809D00C6A036A0650ED
:100170000524076E03500C20086E53D009AA09D03D
:100180000C6A036A0650055C076E03500C58086E33
:1001900048D009AC16D00C6A05C00BF0036A06C043
:1001A0000DF003C00EF00CC010F005C00FF003C03E
:1001B00012F006C011F026D702C008F001C007F007
:1001C00030D009AE2ED0065216E00C6A05C00BF0F6
:1001D000036A06C00DF003C00EF00CC010F005C09D
:1001E0000FF003C012F006C011F01CD702C008F0D7
:1001F00001C007F016D009840A0E0B6E35D70A2A03
:100200000A5032080EE109A607D01F0E0C6E0B68CB
:1002100040DF09960A6A05D00C6A0B6A3ADF098644
:100220000A6A09B405D008C00CF007C00BF031DF32
:0402300074D703007C
:020000040030CA
:0E0000000001181E000581000FC00FE00F4028
:00000001FF
;PIC18F4620
;CRC=731C  CREATED="29-mar.-17 22:41"
