:1000000069EF00F00F501102F3CF01F0F4CF00F0D0
:100010001202F350002610501102F3500020026E1D
:10002000D4EF00F0016A026A006A036A125002E12A
:10003000115018E0100E136ED8900F36103600369F
:1000400003361250035C02E11150005C07E31150CB
:10005000005ED8A003061250035ED8800136023637
:10006000132EEAD7EEEF00F0EA6A0B0EE96EEF50BE
:100070000EE0050E016E006A002EFED7012EFBD7A2
:100080002E0E006E002EFED700D0EF2EF2D7F7EF27
:1000900000F00BC089FF0C300E6E0B300D6E0E326F
:1000A0000D320E320D320E320D320E320D320E3254
:1000B0000D32030E0E160DC08AFF0C300D6E0D3280
:1000C0003F0E0D1696909692969496960DC08DFFC3
:1000D0001200F86AD09EC150C00B0F09C16E070E06
:1000E000B46ED36AD350C050C00B0F09C06EC09E0F
:1000F000C280C00E926E9690969296949686F00E5E
:10010000936EFF0E946E956E056A066A086A076A1A
:10011000096A320E0A6E099482CF05F083CF06F089
:1001200081A805D00988099A099C099E14D081AA42
:1001300005D00998098A099C099E0DD081AC05D08B
:100140000998099A098C099E06D081AE04D00998B5
:10015000099A099C098E09A809D00C6A036A0650FD
:100160000524076E03500C20086E53D009AA09D04D
:100170000C6A036A0650055C076E03500C58086E43
:1001800048D009AC16D00C6A05C00BF0036A06C053
:100190000DF003C00EF00CC010F005C00FF003C04E
:1001A00012F006C011F02ED702C008F001C007F00F
:1001B00030D009AE2ED0065216E00C6A05C00BF006
:1001C000036A06C00DF003C00EF00CC010F005C0AD
:1001D0000FF003C012F006C011F024D702C008F0DF
:1001E00001C007F016D009840A0E0B6E3DD70A2A0B
:1001F0000A5032080EE109A607D01F0E0C6E0B68DC
:1002000048DF09960A6A05D00C6A0B6A42DF098644
:100210000A6A09B405D008C00CF007C00BF039DF3A
:040220007AD7030086
:020000040030CA
:0E0000000008181E000581000FC00FE00F4021
:00000001FF
;PIC18F4620
;CRC=14AB  CREATED="30-mar.-17 14:25"
